:100000000C9462000C946C030C948A000C948A008B
:100010000C948A000C948A000C948A000C948A0038
:100020000C948A000C947F030C948A000C94570360
:100030000C948A000C944A030C948A000C948A0055
:100040000C9400030C948A000C948A000C948A008F
:100050000C948A000C948A000C948A000C948A00F8
:100060000C948A000C948A00000000080002010031
:100070000003040700000000000000000000000072
:1000800023002600290000000000250028002B0086
:1000900000000000240027002A00040404040404D3
:1000A0000404020202020202030303030303010227
:1000B00004081020408001020408102001020408F6
:1000C0001020F70611241FBECFEFD8E0DEBFCDBF52
:1000D00011E0A0E0B1E0E4E6FEE002C005900D9280
:1000E000A034B107D9F721E0A0E4B1E001C01D922E
:1000F000A137B207E1F710E0C2E6D0E004C02197D3
:10010000FE010E942A07C136D107C9F70E94F103F8
:100110000C9430070C94000090E0FC01E255FF4F76
:100120002491FC01E656FF4F8491882399F090E0DA
:10013000880F991FFC01E057FF4FA591B491FC0176
:10014000EA57FF4F859194918FB7F894EC91E22B89
:10015000EC938FBF0895CF93DF9350916A0188236A
:1001600011F0452F01C040E0E0916901F0E0EE0F91
:10017000FF1FE458FF4FC591D491E0916C012BE42F
:1001800030E088818523841701F1C9010197F1F7D7
:10019000EE23B9F380916D0190916E01A0916F01F2
:1001A000B09170014497A109B10980936D019093BA
:1001B0006E01A0936F01B0937001B7FFE2CF81E0B1
:1001C00080936B0180E090E026C020E030E06BE49B
:1001D00070E08881852348131DC0CB010197F1F79A
:1001E0002F5F3F4FEE23A9F380916D0190916E0137
:1001F000A0916F01B09170014497A109B10980935A
:100200006D0190936E01A0936F01B0937001B7FFE1
:10021000E0CFD5CFC901DF91CF91089590E0FC01E7
:10022000E859FF4F2491FC01E255FF4F3491FC0146
:10023000E656FF4FE491EE2309F43CC0222339F146
:10024000233091F038F42130A9F0223001F584B543
:100250008F7D12C0273091F02830A1F02430B9F4FE
:10026000809180008F7D03C0809180008F77809384
:1002700080000DC084B58F7784BD09C08091B00027
:100280008F7703C08091B0008F7D8093B000F0E045
:10029000EE0FFF1FEA57FF4FA591B4919FB7F89457
:1002A000611104C08C913095382302C0EC913E2B33
:1002B0003C939FBF08958E3008F08E508770806405
:1002C00080937C0080917A00806480937A00809192
:1002D0007A0086FDFCCF809178002091790090E033
:1002E000922B08953FB7F894809164019091650135
:1002F000A0916601B091670126B5A89B05C02F3F6C
:1003000019F00196A11DB11D3FBFBA2FA92F982F3B
:100310008827820F911DA11DB11DBC01CD0142E0B6
:10032000660F771F881F991F4A95D1F70895CF92BE
:10033000DF92EF92FF920E9472016B017C010E949A
:100340007201DC01CB018C199D09AE09BF09883E01
:100350009340A105B10598F3FF90EF90DF90CF9007
:1003600008950F931F93CF93DF93C0E0D0E0082F41
:1003700010E0B8010C2E02C0759567950A94E2F75B
:10038000617081E10E940E0161E083E10E940E0133
:1003900060E083E10E940E012196C830D10549F743
:1003A000DF91CF911F910F910895CF93DF93EC01CF
:1003B00060E082E10E940E018FEF0E94B101CC0F3C
:1003C000DD1FC050DF4F888180950E94B10161E040
:1003D00082E1DF91CF910C940E0180E10E945B01DC
:1003E0008538934054F080E10E945B012FEF33E0A9
:1003F000A901481B590BCA0103C080E10E945B019F
:10040000E7ECF0E03197F1F700C000008B30910588
:1004100004F19C012A5031092B303105E0F02451C0
:10042000310920313105C8F0245131092F3131050E
:10043000B0F0285231092531310598F02E5131099B
:100440002333310580F08A5F91098734910568F084
:10045000089580E00BC081E009C082E007C083E01E
:1004600005C084E003C085E001C086E090E0089507
:100470000C941C070F931F93CF93DF930E94ED0101
:10048000EC010E9497010E94ED018C010E949701EE
:10049000C017D10709F0AFC0C330D105A9F134F4BA
:1004A000C130D10569F02297A9F0A5C0C530D105AA
:1004B00009F45EC00CF442C0269709F473C09BC0D7
:1004C00080915D0190915E018D3091050CF093C09B
:1004D000019670C0C09159016C2F85E00E940E01F9
:1004E0006C2F82E090E00E94380281E090E0209141
:1004F000590130915A01232B11F080E090E0909344
:100500005A018093590177C0C09157016C2F86E042
:100510000E940E016C2F83E090E00E94380281E07F
:1005200090E02091570130915801232B11F080E089
:1005300090E090935801809357015DC0C0915501A0
:100540006C2F87E00E940E016C2F84E090E00E94E7
:10055000380281E090E02091550130915601232B23
:1005600011F080E090E0909356018093550143C0D4
:10057000C09153016C2F88E00E940E016C2F85E022
:1005800090E00E94380281E090E020915301309188
:100590005401232B11F080E090E09093540180935C
:1005A000530129C080915D0190915E0118161906D2
:1005B00014F5019790935E0180935D01880F991F58
:1005C000FC01EC5DFE4F80819181895A9F4F909391
:1005D00089008093880060915D0180E090E00E9436
:1005E000380280915D0190915E01DF91CF911F9162
:1005F0000F910C94D501DF91CF911F910F91089528
:100600001F920F920FB60F9211242F933F938F9347
:100610009F93AF93BF938091600190916101A091EE
:100620006201B091630130915F0123E0230F2D3708
:1006300020F40196A11DB11D05C026E8230F0296E6
:10064000A11DB11D20935F01809360019093610112
:10065000A0936201B0936301809164019091650160
:10066000A0916601B09167010196A11DB11D809313
:10067000640190936501A0936601B0936701BF91F7
:10068000AF919F918F913F912F910F900FBE0F903F
:100690001F9018951F920F920FB60F921124299850
:1006A000109281000F900FBE0F901F9018951F920F
:1006B0000F920FB60F9211248F939F93299A8BEF6D
:1006C0009FEF90938500809384009F918F910F906E
:1006D0000FBE0F901F9018951F920F920FB60F929A
:1006E00011248F9384E080938100109285001092F2
:1006F00084008F910F900FBE0F901F9018951F923E
:100700000F920FB60F9211242F933F934F935F9345
:100710006F937F938F939F93AF93BF93EF93FF93C9
:1007200080914601909147018093B20080914901E8
:1007300090914A01A0914B01B0914C010196A11DED
:10074000B11D8093490190934A01A0934B01B0934E
:100750004C018091490190914A01A0914B01B091C7
:100760004C014091420150914301609144017091CC
:10077000450184179507A607B70710F18091480136
:1007800081111EC081E080934801809149019091C0
:100790004A01A0914B01B0914C01841B950BA60B13
:1007A000B70B8093490190934A01A0934B01B093FA
:1007B0004C01E0914001F0914101099510924801EE
:1007C000FF91EF91BF91AF919F918F917F916F9129
:1007D0005F914F913F912F910F900FBE0F901F90FF
:1007E0001895CF93DF9300D000D0CDB7DEB77894C3
:1007F00084B5826084BD84B5816084BD85B5826026
:1008000085BD85B5816085BD80916E0081608093D6
:100810006E0010928100809181008260809381003F
:10082000809181008160809381008091800081604F
:10083000809380008091B10084608093B1008091AA
:10084000B00081608093B00080917A0084608093D2
:100850007A0080917A00826080937A0080917A0099
:10086000816080937A0080917A00806880937A001A
:100870001092C10084E591E0A0E0B0E080934201D5
:1008800090934301A0934401B09345018AE392E021
:100890009093410180934001809170008E7F8093FE
:1008A00070008091B0008C7F8093B0008091B10087
:1008B000877F8093B1008091B6008F7D8093B600D2
:1008C000809170008D7F809370008091B100846072
:1008D0008093B1008091B1008C7F8093B10086E05D
:1008E00090E0909347018093460110924901109245
:1008F0004A0110924B0110924C01109248018091D4
:100900004601909147018093B20080917000816010
:100910008093700014E0812F0E948C001F5F1E30B6
:10092000D1F782E10E948C0083E10E948C0081E17A
:100930000E948C0080E090E00E94140790E0909369
:100940005E0180935D0152985A9A219A83E08093C8
:100950006F00109280001092810080916900826087
:1009600080936900E89A7894E0915D01F0915E01CE
:10097000EE0FFF1FEC5DFE4F80819181895A9F4FE2
:10098000909389008093880004E010E0C8010397E9
:100990000E941407682F802F0E940E010F5F1F4FC7
:1009A0000930110599F70AE010E0C80103970E9489
:1009B0001407682F802F0E940E010F5F1F4F0D300C
:1009C000110599F780915D0190915E010E94D5011A
:1009D00030E4C32E3BE4D32E3CE4E32EF12CBB24C5
:1009E000B39400E010E0C0926D01D0926E01E092ED
:1009F0006F01F0927001B0926C0110926B0180E077
:100A000090E0812C912C2EE5821A21E0920A27E9B0
:100A10008216910408F44DC08659910985369105D6
:100A200008F447C080E00E94AB004C0180916C014B
:100A30008823B9F080916D0190916E01A0916F01B2
:100A4000B091700188199909A109B10980936D01CC
:100A500090936E01A0936F01B0937001B7FDB092B7
:100A60006B0180916B01811156C081E00E94AB0047
:100A700020916C012223B9F040916D0150916E01DB
:100A800060916F0170917001481B590B61097109E8
:100A900040936D0150936E0160936F0170937001EC
:100AA00077FDB0926B0120916B01222309F4ABCF4B
:100AB00032C019821A821B821C82A12C80E00E9403
:100AC000AB004C0180916B01811118C081E00E9444
:100AD000AB0020916B01211111C024E1821A910811
:100AE00020E18216910450F49C01255131092E30E9
:100AF000310530F087549109439720F08FEF03C000
:100B000080E001C081E090916B01911104C08F3FA2
:100B100029F4AA20C9F18FEF9FEF3BC09A2D96953B
:100B200096959695E1E0F0E0EC0FFD1FE90FF11DC1
:100B30009A2D977001C0880F9A95EAF79081892BBA
:100B40008083A39480E2A812B9CF59814A81252FCE
:100B500030E0842F809590E02817390741F48C818C
:100B6000809590E02B8130E02817390791F05111E2
:100B70000EC04F3B61F48C81809590E02B8130E07A
:100B80002817390731F003C08DEF9FEF02C08EEFB9
:100B90009FEF97FD1FC18C30910509F472C084F45A
:100BA0008530910509F4E8C024F4892B09F4B7C015
:100BB00011C18630910509F4E8C00A97A1F00AC175
:100BC0008F30910509F4C5C044F48D30910509F4C6
:100BD00072C00E9709F489C0FDC08B319105E9F010
:100BE0004F97A9F1F7C0A0905B016A2D84E00E94A5
:100BF0000E016A2D81E090E00E94380281E090E0D1
:100C000020915B0130915C01232B11F080E090E09A
:100C100090935C0180935B01DDC0A09059016A2D27
:100C200085E00E940E016A2D82E090E00E94380269
:100C300081E090E02091590130915A01232B11F06D
:100C400080E090E090935A0180935901C3C0A09036
:100C500057016A2D86E00E940E016A2D83E090E024
:100C60000E94380281E090E02091570130915801B4
:100C7000232B11F080E090E090935801809357016E
:100C8000A9C0A09055016A2D87E00E940E016A2D2F
:100C900084E090E00E94380281E090E020915501CC
:100CA00030915601232B11F080E090E09093560193
:100CB000809355018FC0A09053016A2D88E00E9457
:100CC0000E016A2D85E090E00E94380281E090E0FC
:100CD0002091530130915401232B11F080E090E0DA
:100CE000909354018093530175C0A09051016A2DD7
:100CF0008AE00E940E016A2D86E090E00E94380290
:100D000081E090E02091510130915201232B11F0AC
:100D100080E090E090935201809351015BC0A090DD
:100D20004F016A2D8BE00E940E016A2D87E090E052
:100D30000E94380281E090E020914F0130915001F3
:100D4000232B11F080E090E09093500180934F01AD
:100D500041C080904D0190904E01682D8CE00E9422
:100D60000E0181E090E0892811F080E090E09093FE
:100D70004E0180934D012EC080915D0190915E01E6
:100D8000181619063CF5019708C080915D019091F5
:100D90005E018D309105F4F4019690935E0180938D
:100DA0005D01880F991FFC01EC5DFE4F80819181F0
:100DB000895A9F4F909389008093880060915D01CC
:100DC00080E090E00E94380280915D0190915E0188
:100DD0000E94D50180915D0190915E010E94D50134
:100DE0000115110509F4FFCD0E940000FACDA8E617
:100DF000B1E083E08C93EDE9F0E0E4911196EC939F
:100E00001197E1EBF0E0E4911296EC9312971396B0
:100E10001C92139714961C92149715961D921D926E
:100E20001D921C9218970895F999FECF92BD81BD2D
:100E3000F89A992780B50895262FF999FECF1FBA01
:100E400092BD81BD20BD0FB6F894FA9AF99A0FBEF3
:100E500001960895EE0FFF1F0590F491E02D09947F
:040E6000F894FFCF34
:100E6400FC006000DA00F2006600B600BE00E0009C
:100E7400FE00F600EF003F009D007B009F008F0006
:100E8400F7006F005802F401E001C20190017C01F7
:100E94005E012C01FA00B4009600500032000100FB
:00000001FF
