:100000000C9462000C94A3030C948A000C948A0054
:100010000C948A000C948A000C948A000C948A0038
:100020000C948A000C948A000C948A000C94980317
:100030000C948A000C948A000C948A000C948A0018
:100040000C944E030C948A000C941C030C94F6023E
:100050000C948A000C948A000C948A000C948A00F8
:100060000C948A000C948A00000000080002010031
:100070000003040700000000000000000000000072
:1000800023002600290000000000250028002B0086
:1000900000000000240027002A00010204081020AC
:1000A000408001020408102001020408102004040A
:1000B0000404040404040202020202020303030310
:1000C0000303B70311241FBECFEFD8E0DEBFCDBFBF
:1000D00011E0A0E0B1E0E0E1FEE002C005900D9289
:1000E000A835B107D9F722E0A8E5B1E001C01D921B
:1000F000A931B207E1F710E0C2E6D0E004C02197D1
:10010000FE010E94FB06C136D107C9F70E94000418
:100110000C9406070C94000090E0FC01E656FF4F9B
:100120002491FC01E255FF4F8491882399F090E0DF
:10013000880F991FFC01E057FF4FA591B491FC0176
:10014000EA57FF4F859194918FB7F894EC91E22B89
:10015000EC938FBF0895CF93DF93509112028823C1
:1001600011F0452F01C040E0E0911102F0E0EE0FE8
:10017000FF1FE458FF4FC591D491E09114022BE486
:1001800030E088818523841701F1C9010197F1F7D7
:10019000EE23B9F38091150290911602A0911702F7
:1001A000B09118024497A109B10980931502909368
:1001B0001602A0931702B0931802B7FFE2CF81E0B6
:1001C0008093130280E090E026C020E030E06BE4F2
:1001D00070E08881852384131DC0CB010197F1F75E
:1001E0002F5F3F4FEE23A9F38091150290911602E5
:1001F000A0911702B09118024497A109B109809308
:10020000150290931602A0931702B0931802B7FD3F
:10021000D6CFDFCFC901DF91CF910895FC01538D77
:10022000448D252F30E0842F90E0821B930B5417D0
:1002300010F0CF96089501970895FC01918D828D5D
:10024000981761F0828DDF01A80FB11D5D968C912A
:10025000928D9F5F9F73928F90E008958FEF9FEF35
:100260000895FC01918D828D981731F0828DE80FF1
:10027000F11D858D90E008958FEF9FEF0895FC01AB
:10028000918D228D892F90E0805C9F4F821B910978
:100290008F7399270895FC01848DDF01A80FB11D8C
:1002A000A35ABF4F2C91848D90E001968F739927AC
:1002B000848FA689B7892C93A089B1898C91806499
:1002C0008C93938D848D981306C00288F389E02D5A
:1002D00080818F7D80830895EF92FF920F931F930B
:1002E000CF93DF93EC0181E0888F9B8D8C8D9813E9
:1002F00005C0E889F989808185FD24C0F62E0B8D23
:1003000010E00F5F1F4F0F731127E02E8C8DE81246
:100310000CC00FB607FCFACFE889F989808185FF08
:10032000F5CFCE010E944B01F1CF8B8DFE01E80F7E
:10033000F11DE35AFF4FF0820B8FEA89FB89808120
:10034000806207C0EE89FF896083E889F98980812E
:100350008064808381E090E0DF91CF911F910F91C5
:10036000FF90EF900895CF93DF93EC01888D882361
:10037000C9F0EA89FB89808185FD05C0A889B98912
:100380008C9186FD0FC00FB607FCF5CF808185FFED
:10039000F2CFA889B9898C9185FFEDCFCE010E945B
:1003A0004B01E7CFDF91CF91089583E791E00E9461
:1003B0003F0121E0892B09F420E0822F089580E09D
:1003C00090E0892B29F00E94D50181110C94000046
:1003D0000895CF92DF92EF92FF920F931F93CF93E6
:1003E000DF936C017A018B01C0E0D0E0CE15DF0510
:1003F00089F0D8016D918D01D601ED91FC910190AC
:10040000F081E02DC6010995892B11F47E0102C00F
:100410002196ECCFC701DF91CF911F910F91FF90F3
:10042000EF90DF90CF900895089580E090E00895D8
:1004300090E0FC01E859FF4F3491FC01E656FF4F74
:100440002491FC01E255FF4FE491EE2309F43BC0F7
:10045000332339F1333091F038F43130A9F03230B0
:1004600001F584B58F7D12C0373091F03830A1F09E
:100470003430B9F4809180008F7D03C0809180007A
:100480008F77809380000DC084B58F7784BD09C0BD
:100490008091B0008F7703C08091B0008F7D8093F2
:1004A000B000F0E0EE0FFF1FEA57FF4FA591B491A7
:1004B0008FB7F894EC91611103C020952E2301C0F1
:1004C0002E2B2C938FBF08950F931F93CF93DF9301
:1004D000C0E0D0E0082F10E0B8010C2E02C07595E6
:1004E00067950A94E2F76170772781E10E9418020C
:1004F00061E083E10E94180260E083E10E9418023B
:100500002196C830D10541F7DF91CF911F910F910E
:100510000895CF93DF93EC0160E082E10E9418021E
:100520008FEF0E946402CC0FDD1FCE5FDE4F88810B
:1005300080950E94640261E082E1DF91CF910C948A
:1005400018028F929F92AF92BF920F931F93CF93F7
:10055000DF93CDB7DEB7A1970FB6F894DEBF0FBE1D
:10056000CDBF19A2423008F44AE08E010F5D1F4F43
:10057000842E912CA12CB12CA50194010E94D906A6
:10058000E62FB901CA0101501109EA3014F4E05D07
:1005900001C0E95CD801EC93232B242B252B61F7B8
:1005A0000115110571F0F80101900020E9F731976C
:1005B000AF01401B510BB80183E791E00E94E901B4
:1005C00002C080E090E0A1960FB6F894DEBF0FBEA7
:1005D000CDBFDF91CF911F910F91BF90AF909F90B2
:1005E0008F9008950E9401070C94CB061F920F92E2
:1005F0000FB60F9211242F933F934F935F936F93F6
:100600007F938F939F93AF93BF93EF93FF9383E772
:1006100091E00E944B01FF91EF91BF91AF919F91AB
:100620008F917F916F915F914F913F912F910F909B
:100630000FBE0F901F9018951F920F920FB60F923A
:1006400011242F938F939F93EF93FF93E091830156
:10065000F09184018081E0918901F0918A0182FD0D
:1006600012C0908180918C018F5F8F7320918D01DA
:10067000821751F0E0918C01F0E0ED58FE4F958F1C
:1006800080938C0101C08081FF91EF919F918F91A8
:100690002F910F900FBE0F901F9018951F920F92E1
:1006A0000FB60F9211242F933F938F939F93AF9385
:1006B000BF9380915D0190915E01A0915F01B09127
:1006C000600130915C0123E0230F2D3720F4019667
:1006D000A11DB11D05C026E8230F0296A11DB11D65
:1006E00020935C0180935D0190935E01A0935F0174
:1006F000B09360018091580190915901A0915A01E5
:10070000B0915B010196A11DB11D8093580190939A
:100710005901A0935A01B0935B01BF91AF919F9192
:100720008F913F912F910F900FBE0F901F901895B2
:100730001F920F920FB60F921124299A0F900FBE9D
:100740000F901F9018951F920F920FB60F921124C1
:100750008F932998109285001092840084E08093F2
:1007600081008F910F900FBE0F901F901895E3E7B7
:10077000F1E01382128288EE93E0A0E0B0E084837F
:100780009583A683B78386E491E09183808385EC8B
:1007900090E09587848784EC90E09787868780EC4B
:1007A00090E0918B808B81EC90E0938B828B82EC3C
:1007B00090E0958B848B86EC90E0978B868B118EE6
:1007C000128E138E148EA0E1B2E083E08C93E1EBE5
:1007D000F0E0E4911196EC931197EDE9F0E0E491EB
:1007E0001296EC93129713961C92139714961C92E0
:1007F000149715961D921D921D921C92189708959C
:10080000CF93DF9300D000D0CDB7DEB7789484B516
:10081000826084BD84B5816084BD85B5826085BDFC
:1008200085B5816085BD80916E00816080936E008A
:10083000109281008091810082608093810080917C
:10084000810081608093810080918000816080932D
:1008500080008091B10084608093B1008091B000ED
:1008600081608093B00080917A00846080937A00E8
:1008700080917A00826080937A0080917A00816012
:1008800080937A0080917A00806880937A00109239
:10089000C10014E0812F0E948C001F5F1E30D1F731
:1008A00082E10E948C0083E10E948C0081E10E9421
:1008B0008C0080E090E00E94C30690E0909362017B
:1008C0008093610152985A9A219A83E080936F0035
:1008D0001092800010928100809169008260809364
:1008E000690080916900816080936900E89A78943A
:1008F000E0916101F0916201EE0FFF1FEA5DFE4F92
:1009000080819181909389008093880001E010E0BC
:10091000C8010E94C306682F83E0800F0E9418025E
:100920000F5F1F4F0630110599F707E010E0C8016F
:100930000E94C306682F83E0800F0E9418020F5F99
:100940001F4F0A30110599F7809161019091620162
:100950000E94890230E4C32E3BE4D32E3CE4E32E14
:10096000F12C11E0C0921502D0921602E09217020B
:10097000F0921802109314021092130220E030E05B
:10098000A12CB12C8EE5A81A81E0B80A87E9A81637
:10099000B10408F44EC0265931092536310508F452
:1009A00048C080E00E94AB005C0180911402882363
:1009B000B9F08091150290911602A0911702B091A2
:1009C00018028A199B09A109B10980931502909315
:1009D0001602A0931702B0931802B7FD10931302EA
:1009E00080911302811157C081E00E94AB009C01ED
:1009F000809114028823B9F080911502909116021B
:100A0000A0911702B0911802821B930BA109B109A2
:100A10008093150290931602A0931702B0931802C8
:100A2000B7FD1093130280911302882309F4AACF13
:100A300032C019821A821B821C8200E080E00E9470
:100A4000AB005C0180911302811118C081E00E940B
:100A5000AB009C0180911302811110C084E1A81A9F
:100A6000B10880E1A816B10448F4C90145970E9772
:100A700038F0275431092331310520F08FEF03C0BE
:100A800080E001C081E090911302911104C08F3F7A
:100A900029F40023C9F16FEF7FEF3BC0902F9695AB
:100AA00096959695E1E0F0E0EC0FFD1FE90FF11D42
:100AB000902F977001C0880F9A95EAF79081892B43
:100AC00080830F5F003209F0B9CF39812A81432F2B
:100AD00050E0822F809590E04817590741F46C81CF
:100AE000609570E08B8190E08617970791F0311147
:100AF0000EC02F3B61F46B8170E08C81809590E09B
:100B00006817790731F003C06DEF7FEF02C06EEF19
:100B10007FEF77FD35C170930101609300016C3068
:100B2000710509F476C094F46530710509F4ECC0E0
:100B30002CF46115710509F4BAC013C16630710552
:100B400009F4EBC06A307105B1F00BC16F3071056B
:100B500009F4C7C04CF46D30710509F474C06E30EF
:100B6000710509F48AC0FDC06B317105F1F06F3178
:100B70007105A9F1F6C000917101602F84E00E9417
:100B80001802602F81E090E00E94F40281E090E082
:100B90002091710130917201232B11F080E090E0DF
:100BA0009093720180937101EBC000916F01602FEF
:100BB00085E00E941802602F82E090E00E94F4021B
:100BC00081E090E020916F0130917001232B11F0B2
:100BD00080E090E09093700180936F01D1C000910C
:100BE0006D01602F86E00E941802602F83E090E084
:100BF0000E94F40281E090E020916D0130916E013D
:100C0000232B11F080E090E090936E0180936D01B2
:100C1000B7C000916B01602F87E00E941802602F1F
:100C200084E090E00E94F40281E090E020916B016A
:100C300030916C01232B11F080E090E090936C01D7
:100C400080936B019DC000916901602F88E00E9434
:100C50001802602F85E090E00E94F40281E090E0AD
:100C60002091690130916A01232B11F080E090E01E
:100C700090936A018093690183C000916701602F9E
:100C80008AE00E941802602F86E090E00E94F40241
:100C900081E090E02091670130916801232B11F0F1
:100CA00080E090E0909368018093670169C00091B3
:100CB0006501602F8BE00E941802602F87E090E0B2
:100CC0000E94F40281E090E020916501309166017C
:100CD000232B11F080E090E09093660180936501F2
:100CE0004FC0A0906301B09064016A2D8CE00E9417
:100CF000180281E090E0AB2811F080E090E0909342
:100D00006401809363013CC0809161019091620114
:100D100018161906ACF5019708C0809161019091F1
:100D200062018D30910564F5019690936201809384
:100D30006101880F991FFC01EA5DFE4F808191815E
:100D400090938900809388006091610180E090E039
:100D50000E94F40280916101909162010E948902D7
:100D60000FC0072E000C880B990B4AE00E94A102CD
:100D700042E050E064E571E083E791E00E94E90120
:100D80000E94DF01EFCDF999FECF92BD81BDF89AA7
:100D9000992780B50895262FF999FECF1FBA92BDE5
:100DA00081BD20BD0FB6F894FA9AF99A0FBE01964C
:100DB0000895A1E21A2EAA1BBB1BFD010DC0AA1F9C
:100DC000BB1FEE1FFF1FA217B307E407F50720F0B4
:100DD000A21BB30BE40BF50B661F771F881F991F2F
:100DE0001A9469F760957095809590959B01AC0178
:100DF000BD01CF010895EE0FFF1F0590F491E02D86
:100E0000099481E090E0F8940C940607F894FFCFE1
:100E1000FFFFFC006000DA00F2006600B600BE00D2
:100E2000E000FE00F600EF003F009D007B009F0009
:100E30008F00F7006F005802F401E001C201900139
:100E40007C015E012C01FA00B400960050003200D3
:100E50000100000000006C01E9010E01B3013F0137
:080E60001D0131010D0A000023
:107E0000112484B714BE81FFF0D085E080938100F7
:107E100082E08093C00088E18093C10086E0809377
:107E2000C20080E18093C4008EE0C9D0259A86E02C
:107E300020E33CEF91E0309385002093840096BBD3
:107E4000B09BFECF1D9AA8958150A9F7CC24DD24C4
:107E500088248394B5E0AB2EA1E19A2EF3E0BF2EE7
:107E6000A2D0813461F49FD0082FAFD0023811F036
:107E7000013811F484E001C083E08DD089C08234E0
:107E800011F484E103C0853419F485E0A6D080C0E4
:107E9000853579F488D0E82EFF2485D0082F10E0AE
:107EA000102F00270E291F29000F111F8ED06801E7
:107EB0006FC0863521F484E090D080E0DECF843638
:107EC00009F040C070D06FD0082F6DD080E0C81688
:107ED00080E7D80618F4F601B7BEE895C0E0D1E017
:107EE00062D089930C17E1F7F0E0CF16F0E7DF06D8
:107EF00018F0F601B7BEE89568D007B600FCFDCFD4
:107F0000A601A0E0B1E02C9130E011968C91119780
:107F100090E0982F8827822B932B1296FA010C0160
:107F200087BEE89511244E5F5F4FF1E0A038BF0790
:107F300051F7F601A7BEE89507B600FCFDCF97BE46
:107F4000E89526C08437B1F42ED02DD0F82E2BD052
:107F50003CD0F601EF2C8F010F5F1F4F84911BD097
:107F6000EA94F801C1F70894C11CD11CFA94CF0C13
:107F7000D11C0EC0853739F428D08EE10CD085E9AC
:107F80000AD08FE07ACF813511F488E018D01DD067
:107F900080E101D065CF982F8091C00085FFFCCF94
:107FA0009093C60008958091C00087FFFCCF809118
:107FB000C00084FD01C0A8958091C6000895E0E648
:107FC000F0E098E1908380830895EDDF803219F02E
:107FD00088E0F5DFFFCF84E1DECF1F93182FE3DFCA
:107FE0001150E9F7F2DF1F91089580E0E8DFEE27F6
:047FF000FF270994CA
:027FFE00040479
:0400000300007E007B
:00000001FF
