:100000000C9462000C9456030C948A000C948A00A1
:100010000C948A000C948A000C948A000C948A0038
:100020000C948A000C946A030C948A000C944B0381
:100030000C948A000C948A000C948A000C948A0018
:100040000C9401030C948A000C948A000C948A008E
:100050000C948A000C948A000C948A000C948A00F8
:100060000C948A000C948A00000000080002010031
:100070000003040700000000000000000000000072
:1000800023002600290000000000250028002B0086
:1000900000000000240027002A00040404040404D3
:1000A0000404020202020202030303030303010227
:1000B00004081020408001020408102001020408F6
:1000C0001020E80611241FBECFEFD8E0DEBFCDBF61
:1000D00011E0A0E0B1E0E6E4FEE002C005900D9280
:1000E000A234B107D9F721E0A2E4B1E001C01D922A
:1000F000A337B207E1F710E0C2E6D0E004C02197D1
:10010000FE010E941B07C136D107C9F70E94DC031C
:100110000C9421070C94000090E0FC01E255FF4F85
:100120002491FC01E656FF4F8491882399F090E0DA
:10013000880F991FFC01E057FF4FA591B491FC0176
:10014000EA57FF4F859194918FB7F894EC91E22B89
:10015000EC938FBF0895CF93DF9350916C01882368
:1001600011F0452F01C040E0E0916B01F0E0EE0F8F
:10017000FF1FE458FF4FC591D491E0916E012BE42D
:1001800030E088818523841701F1C9010197F1F7D7
:10019000EE23B9F380916F0190917001A0917101EC
:1001A000B09172014497A109B10980936F019093B6
:1001B0007001A0937101B0937201B7FFE2CF81E0AB
:1001C00080936D0180E090E026C020E030E06BE499
:1001D00070E08881852384131DC0CB010197F1F75E
:1001E0002F5F3F4FEE23A9F380916F019091700133
:1001F000A0917101B09172014497A109B109809356
:100200006F0190937001A0937101B0937201B7FDDB
:10021000D6CFDFCFC901DF91CF91089590E0FC01E7
:10022000E859FF4F3491FC01E255FF4F2491FC0146
:10023000E656FF4FE491EE2309F43BC0332339F136
:10024000333091F038F43130A9F0323001F584B513
:100250008F7D12C0373091F03830A1F03430B9F4CE
:10026000809180008F7D03C0809180008F77809384
:1002700080000DC084B58F7784BD09C08091B00027
:100280008F7703C08091B0008F7D8093B000F0E045
:10029000EE0FFF1FEA57FF4FA591B4918FB7F89467
:1002A000EC91611103C020952E2301C02E2B2C93BD
:1002B0008FBF08958E3008F08E50877080648093D1
:1002C0007C0080917A00806480937A0080917A002B
:1002D00086FDFCCF809178002091790090E0922BF0
:1002E00008953FB7F8948091470190914801A091FB
:1002F0004901B0914A0126B5A89B05C02F3F19F0CE
:100300000196A11DB11D3FBFBA2FA92F982F882795
:10031000820F911DA11DB11DBC01CD0142E0660FF0
:10032000771F881F991F4A95D1F70895CF92DF92C2
:10033000EF92FF920E9471016B017C010E9471019A
:10034000DC01CB018C199D09AE09BF09883E9340A1
:10035000A105B10598F3FF90EF90DF90CF9008953D
:1003600080E10E945A018538934054F080E10E9458
:100370005A012FEF33E0A901481B590BCA0103C0F2
:1003800080E10E945A01E7ECF0E03197F1F700C0FC
:1003900000008B30910504F19C012A5031092B306B
:1003A0003105E0F02451310920313105C8F02451E4
:1003B00031092F313105B0F028523109253131058D
:1003C00098F02E5131092333310580F08A5F91096D
:1003D0008734910568F0089580E00BC081E009C082
:1003E00082E007C083E005C084E003C085E001C06F
:1003F00086E090E008950F931F93CF93DF93C0E0C2
:10040000D0E0082F10E0B8010C2E02C0759567955A
:100410000A94E2F76170772781E10E940E0161E0A2
:1004200083E10E940E0160E083E10E940E012196AB
:10043000C830D10541F7DF91CF911F910F910895F9
:10044000CF93DF93EC0160E082E10E940E018FEF19
:100450000E94FB01CC0FDD1FCE5FDE4F88818095AF
:100460000E94FB0161E082E1DF91CF910C940E01CB
:100470000C940D070F931F93CF93DF930E94B0014D
:10048000EC010E9496010E94B0018C010E9496012D
:10049000C017D10709F0B0C0C330D10509F445C079
:1004A00034F4C130D10569F0229729F1A5C0C530D7
:1004B000D10509F46EC00CF452C0269709F483C02C
:1004C0009BC0C09166016C2F84E00E940E016C2FCE
:1004D00081E090E00E94380281E090E02091660186
:1004E00030916701232B11F080E090E09093670139
:1004F0008093660181C0C09164016C2F85E00E94E9
:100500000E016C2F82E090E00E94380281E090E0C2
:100510002091640130916501232B11F080E090E07F
:10052000909365018093640167C0C09162016C2F54
:1005300086E00E940E016C2F83E090E00E9438025A
:1005400081E090E02091620130916301232B11F052
:1005500080E090E090936301809362014DC0C09170
:1005600060016C2F87E00E940E016C2F84E090E008
:100570000E94380281E090E0209160013091610199
:10058000232B11F080E090E0909361018093600153
:1005900033C0C0915E016C2F88E00E940E016C2F69
:1005A00085E090E00E94380281E090E020915E01B9
:1005B00030915F01232B11F080E090E090935F0178
:1005C00080935E0119C0C0915C016C2F8AE00E948B
:1005D0000E016C2F86E090E00E94380281E090E0EE
:1005E00020915C0130915D01232B11F080E090E0BF
:1005F00090935D0180935C01DF91CF911F910F91EA
:1006000008951F920F920FB60F9211242F933F93CC
:100610008F939F93AF93BF93809143019091440137
:10062000A0914501B09146013091420123E0230F92
:100630002D3720F40196A11DB11D05C026E8230F1A
:100640000296A11DB11D2093420180934301909316
:100650004401A0934501B0934601809147019091D8
:100660004801A0914901B0914A010196A11DB11D17
:100670008093470190934801A0934901B0934A01A8
:10068000BF91AF919F918F913F912F910F900FBE8E
:100690000F901F9018951F920F920FB60F92112472
:1006A000299A0F900FBE0F901F9018951F920F92CE
:1006B0000FB60F9211248F932998109285001092F3
:1006C000840084E0809381008F910F900FBE0F9083
:1006D0001F9018951F920F920FB60F9211242F930F
:1006E0003F934F935F936F937F938F939F93AF93BA
:1006F000BF93EF93FF9380915101909152018093AA
:10070000B2008091540190915501A0915601B09191
:1007100057010196A11DB11D80935401909355017D
:10072000A0935601B09357018091540190915501C7
:10073000A0915601B091570140914D0150914E0149
:1007400060914F017091500184179507A607B70774
:1007500010F18091530181111EC081E080935301FB
:100760008091540190915501A0915601B09157018B
:10077000841B950BA60BB70B8093540190935501E6
:10078000A0935601B0935701E0914B01F0914C01B9
:10079000099510925301FF91EF91BF91AF919F91F5
:1007A0008F917F916F915F914F913F912F910F901A
:1007B0000FBE0F901F901895CF93DF9300D000D0FD
:1007C000CDB7DEB7789484B5826084BD84B581608E
:1007D00084BD85B5826085BD85B5816085BD80910C
:1007E0006E00816080936E00109281008091810084
:1007F000826080938100809181008160809381007C
:10080000809180008160809380008091B10084603D
:100810008093B1008091B00081608093B00080919E
:100820007A00846080937A0080917A00826080935D
:100830007A0080917A00816080937A0080917A00BA
:10084000806880937A001092C10084E591E0A0E076
:10085000B0E080934D0190934E01A0934F01B0936F
:1008600050018AE392E090934C0180934B01809178
:1008700070008E7F809370008091B0008C7F809399
:10088000B0008091B100877F8093B1008091B60065
:100890008F7D8093B600809170008D7F8093700073
:1008A0008091B10084608093B1008091B1008C7F11
:1008B0008093B10086E090E09093520180935101C3
:1008C0001092540110925501109256011092570146
:1008D0001092530180915101909152018093B20086
:1008E0008091700081608093700014E0812F0E94DD
:1008F0008C001F5F1E30D1F782E10E948C0083E1E3
:100900000E948C0081E10E948C0080E090E00E94B7
:10091000050790E0909369018093680152985A9A74
:10092000219A83E080936F001092800010928100E2
:100930008091690082608093690080916900816084
:1009400080936900E89A7894E0916801F0916901D8
:10095000EE0FFF1FEA5DFE4F808191819093890029
:100960008093880001E010E0C8010E940507682F0D
:1009700083E0800F0E940E010F5F1F4F06301105AC
:1009800099F707E010E0C8010E940507682F83E08F
:10099000800F0E940E010F5F1F4F0A30110599F75B
:1009A00080916801909169010E94200230E4832EB9
:1009B0003BE4932E3CE4A32EB12CFF24F39400E0FF
:1009C00010E080926F0190927001A0927101B0923C
:1009D0007201F0926E0110926D0120E030E0C12CA6
:1009E000D12C8EE5C81A81E0D80A87E9C816D1044F
:1009F00008F44EC0265931092536310508F448C09F
:100A000080E00E94AB006C0180916E018823B9F0F8
:100A100080916F0190917001A0917101B09172016C
:100A20008C199D09A109B10980936F019093700100
:100A3000A0937101B0937201B7FDF0926D018091A6
:100A40006D01811157C081E00E94AB009C01809133
:100A50006E018823B9F080916F0190917001A0918F
:100A60007101B0917201821B930BA109B1098093AE
:100A70006F0190937001A0937101B0937201B7FD63
:100A8000F0926D0180916D01882309F4AACF32C0E4
:100A900019821A821B821C82E12C80E00E94AB002A
:100AA0006C0180916D01811118C081E00E94AB0042
:100AB00020916D01211111C024E1C21AD10820E159
:100AC000C216D10450F49C01255131092E30310554
:100AD00030F087549109439720F08FEF03C080E0F6
:100AE00001C081E090916D01911104C08F3F29F404
:100AF000EE20C9F18FEF9FEF3BC09E2D9695969506
:100B00009695E1E0F0E0EC0FFD1FE90FF11D9E2D41
:100B1000977001C0880F9A95EAF79081892B80839E
:100B2000E39480E2E812B9CF59814A81252F30E061
:100B3000842F809590E02817390741F48C818095A7
:100B400090E02B8130E02817390791F051110EC049
:100B50004F3B61F48B8190E02C81209530E082172F
:100B6000930731F003C08DEF9FEF02C08EEF9FEF30
:100B700097FD21C190930101809300018C30910574
:100B800009F472C084F48530910509F4E8C024F4B6
:100B9000892B09F4B7C00FC18630910509F4E8C06C
:100BA0000A97A1F008C18F30910509F4C5C044F43B
:100BB0008D30910509F472C00E9709F489C0FBC00D
:100BC0008B319105E9F04F97A9F1F5C0E0906601EE
:100BD0006E2D84E00E940E016E2D81E090E00E9457
:100BE000380281E090E02091660130916701232B6B
:100BF00011F080E090E09093670180936601DBC084
:100C0000E09064016E2D85E00E940E016E2D82E061
:100C100090E00E94380281E090E0209164013091E0
:100C20006501232B11F080E090E0909365018093A3
:100C30006401C1C0E09062016E2D86E00E940E0149
:100C40006E2D83E090E00E94380281E090E02091D8
:100C5000620130916301232B11F080E090E09093CA
:100C6000630180936201A7C0E09060016E2D87E070
:100C70000E940E016E2D84E090E00E94380281E017
:100C800090E02091600130916101232B11F080E010
:100C900090E090936101809360018DC0E0905E01CF
:100CA0006E2D88E00E940E016E2D85E090E00E947E
:100CB000380281E090E020915E0130915F01232BAA
:100CC00011F080E090E090935F0180935E0173C02B
:100CD000E0905C016E2D8AE00E940E016E2D86E090
:100CE00090E00E94380281E090E020915C01309118
:100CF0005D01232B11F080E090E090935D018093E3
:100D00005C0159C0E0905A016E2D8BE00E940E01EB
:100D10006E2D87E090E00E94380281E090E0209103
:100D20005A0130915B01232B11F080E090E0909309
:100D30005B0180935A013FC0C0905801D090590187
:100D40006C2D8CE00E940E0181E090E0CD2811F026
:100D500080E090E090935901809358012CC08091DD
:100D6000680190916901181619062CF5019708C0C1
:100D700080916801909169018D309105E4F40196AC
:100D80009093690180936801880F991FFC01EA5DC7
:100D9000FE4F8081918190938900809388006091BB
:100DA000680180E090E00E94380280916801909193
:100DB00069010E94200280916801909169010E945E
:100DC00020020115110509F4FCCD0E940000F5CDAB
:100DD000AAE6B1E083E08C93EDE9F0E0E4911196AE
:100DE000EC931197E1EBF0E0E4911296EC931297FB
:100DF00013961C92139714961C92149715961D9295
:100E00001D921D921C9218970895F999FECF92BDDC
:100E100081BDF89A992780B50895262FF999FECFBC
:100E20001FBA92BD81BD20BD0FB6F894FA9AF99A07
:100E30000FBE01960895EE0FFF1F0590F491E02D6F
:060E40000994F894FFCFB5
:100E4600FFFFFC006000DA00F2006600B600BE009C
:100E5600E000FE00F600EF003F009D007B009F00D3
:100E66008F00F7006F005802F401E001C201900103
:100E76007C015E012C01FA00B4009600500032009D
:020E8600010069
:107E0000112484B714BE81FFF0D085E080938100F7
:107E100082E08093C00088E18093C10086E0809377
:107E2000C20080E18093C4008EE0C9D0259A86E02C
:107E300020E33CEF91E0309385002093840096BBD3
:107E4000B09BFECF1D9AA8958150A9F7CC24DD24C4
:107E500088248394B5E0AB2EA1E19A2EF3E0BF2EE7
:107E6000A2D0813461F49FD0082FAFD0023811F036
:107E7000013811F484E001C083E08DD089C08234E0
:107E800011F484E103C0853419F485E0A6D080C0E4
:107E9000853579F488D0E82EFF2485D0082F10E0AE
:107EA000102F00270E291F29000F111F8ED06801E7
:107EB0006FC0863521F484E090D080E0DECF843638
:107EC00009F040C070D06FD0082F6DD080E0C81688
:107ED00080E7D80618F4F601B7BEE895C0E0D1E017
:107EE00062D089930C17E1F7F0E0CF16F0E7DF06D8
:107EF00018F0F601B7BEE89568D007B600FCFDCFD4
:107F0000A601A0E0B1E02C9130E011968C91119780
:107F100090E0982F8827822B932B1296FA010C0160
:107F200087BEE89511244E5F5F4FF1E0A038BF0790
:107F300051F7F601A7BEE89507B600FCFDCF97BE46
:107F4000E89526C08437B1F42ED02DD0F82E2BD052
:107F50003CD0F601EF2C8F010F5F1F4F84911BD097
:107F6000EA94F801C1F70894C11CD11CFA94CF0C13
:107F7000D11C0EC0853739F428D08EE10CD085E9AC
:107F80000AD08FE07ACF813511F488E018D01DD067
:107F900080E101D065CF982F8091C00085FFFCCF94
:107FA0009093C60008958091C00087FFFCCF809118
:107FB000C00084FD01C0A8958091C6000895E0E648
:107FC000F0E098E1908380830895EDDF803219F02E
:107FD00088E0F5DFFFCF84E1DECF1F93182FE3DFCA
:107FE0001150E9F7F2DF1F91089580E0E8DFEE27F6
:047FF000FF270994CA
:027FFE00040479
:0400000300007E007B
:00000001FF
